:020000003B2A99
:100006003728831203133508F1000130F000710818
:1000160003191128F00D7010FF3E0B2883120313ED
:100026007009F100340884000008F0007108F0053A
:10003600340884007008800042283508F00001303A
:10004600F100700803192B28F10D7110FF3E2528C9
:10005600340884000008F0007108F00434088400B5
:100066007008800042284228831203133608003A9B
:10007600031904283608013A0319202836280800EF
:100086007728831203133508F1000130F000710858
:1000960003195128F00D7010FF3E4B2883120313ED
:1000A6007009F100340884000008F0007108F005BA
:1000B600340884007008800082283508F00001307A
:1000C600F100700803196B28F10D7110FF3E6528C9
:1000D600340884000008F0007108F0043408840035
:1000E6007008800082288228831203133608003A9B
:1000F600031944283608013A0319602876280800AF
:100106009F28083083120313B400B501B6010320FB
:100116000830B4000130B500B6010320A928083024
:10012600B4000230B500B60103200830B400033035
:10013600B500B6010320A928831203133208003A3A
:0E014600031984283208013A03199228080090
:10015400323083120313B4003308B5000130B60003
:04016400432008002C
:0E0168008312031322088A0021088200080077
:100176000929D928083083120313B400B5010130C8
:10018600B60003200830B4000130B500B6010320E4
:10019600E3280830B400B501B60103200830B400E6
:1001A6000130B5000130B6000320E32883120313A3
:1001B6003308003A0319BD283308013A0319CC283D
:1001C60000290830B4000230B5000130B600032023
:1001D6000830B4000330B500B60103200829083002
:1001E600B4000230B500B60103200830B400033075
:1001F600B5000130B600032008293308003A031978
:10020600E4283308013A0319F22813298312031349
:100216003208003A0319BC283208013A0319E328C8
:020226000800CE
:1002280083120313320884000008F3003308F20035
:100238000130F000F101720803192729F00DF10DC2
:100248007010FF3E20290030F4007008F305710893
:10025800F4053308F2007308F0007408F10072081E
:1002680003193B29F10CF00CF113FF3E3429080067
:1002780083120313B0012E0830020318BE29300878
:100288002F07B1009F29B201B301BB200130B20092
:10029800B301BB200B30FB002630FC005D30FD00B5
:1002A800FD0B5429FC0B5429FB0B542900000000BA
:1002B800B729B2010130B300BB200130B2000130D0
:1002C800B300BB200B30FB002630FC005D30FD0086
:1002D800FD0B6C29FC0B6C29FB0B6C290000000042
:1002E800B729B20183200130B200B301BB200B3023
:1002F800FB002630FC005D30FD00FD0B8129FC0B66
:100308008129FB0B812900000000B729B201B30144
:10031800BB200130B20083200B30FB002630FC00EC
:100328005D30FD00FD0B9629FC0B9629FB0B9629E9
:1003380000000000B729310884000008003A0319BA
:100348004729310884000008013A03195D2931085A
:1003580084000008023A031975293108840000084E
:10036800033A03198A29B20183200130B20083209D
:06037800B00A3F29080055
:10037E0083120313B0012E30B2002F08B3001421E4
:10038E00200870060319EE298230FC00DD30FD00D6
:10039E00FD0BCF29FC0BCF29000000002E30B20040
:1003AE002F08B30014217008A0007008013A031D35
:1003BE00E3290130B000E429B0018230FC00DD30C9
:1003CE00FD00FD0BE829FC0BE829000000003008B9
:0403DE00F000080023
:1003E2008312031386018801831606088312B20062
:1003F200B301AA20831606088312B2000130B300AB
:10040200AA20831606088312B2000230B300AA2083
:10041200831606088312B2000330B300AA208316A3
:1004220006088312B2000730B300AA208830B40055
:10043200B501B60143208830B4000130B500B601E1
:1004420043208830B4000230B500B6014320883022
:0C045200B4000330B500B60143200800E0
:10045E00B4208A110A128000840AA10A0319A20A82
:08046E00F003031D2F2A080012
:10047600BE2283120313AD01F1210608AE00073038
:10048600AF00BF217008003A031DAF2A0608AE0070
:10049600AF01BF217008013A031D612A2D08233ED2
:1004A60084008001AD0A3430FC00F130FD00FD0B04
:1004B6005A2AFC0B5A2A00000000AE2A0608AE0093
:1004C6000130AF00BF217008013A031D7B2A2D08B9
:1004D600233E840001308000AD0A3430FC00F13048
:1004E600FD00FD0B742AFC0B742A00000000AE2AE6
:1004F6000608AE000330AF00BF217008013A031DA5
:10050600952A2D08233E840003308000AD0A34303E
:10051600FC00F130FD00FD0B8E2AFC0B8E2A00003C
:100526000000AE2A0608AE000230AF00BF217008F8
:10053600013A031DAE2A2D08233E840002308000B6
:10054600AD0A3430FC00F130FD00FD0BA82AFC0B8F
:10055600A82A00000000402A2D08AE002330AF0074
:080566003C21AD01402AB62A38
:10057C0020308400013083120313F000BC30A10042
:08058C000230A2002F2208003A
:0205780000344D
:02400E007A3BFB
:00000001FF
